{
  "address": "0x0c4b614DDf11E83c993BE09285b9fCe002D60B83",
  "abi": [
    {
      "inputs": [],
      "stateMutability": "nonpayable",
      "type": "constructor"
    },
    {
      "inputs": [
        {
          "internalType": "uint256",
          "name": "_auctionDuration",
          "type": "uint256"
        },
        {
          "internalType": "uint256",
          "name": "_startingBid",
          "type": "uint256"
        },
        {
          "internalType": "address",
          "name": "_nftContract",
          "type": "address"
        },
        {
          "internalType": "uint256",
          "name": "_tokenId",
          "type": "uint256"
        }
      ],
      "name": "createAuction",
      "outputs": [],
      "stateMutability": "nonpayable",
      "type": "function"
    },
    {
      "inputs": [
        {
          "internalType": "address",
          "name": "nftContractAddress",
          "type": "address"
        },
        {
          "internalType": "uint256",
          "name": "tokenId",
          "type": "uint256"
        }
      ],
      "name": "getAuction",
      "outputs": [
        {
          "internalType": "contract NftAuction",
          "name": "",
          "type": "address"
        }
      ],
      "stateMutability": "view",
      "type": "function"
    },
    {
      "inputs": [
        {
          "internalType": "address",
          "name": "",
          "type": "address"
        },
        {
          "internalType": "uint256",
          "name": "",
          "type": "uint256"
        }
      ],
      "name": "nftContractAuctionContractMap",
      "outputs": [
        {
          "internalType": "contract NftAuction",
          "name": "",
          "type": "address"
        }
      ],
      "stateMutability": "view",
      "type": "function"
    },
    {
      "inputs": [
        {
          "internalType": "address",
          "name": "",
          "type": "address"
        }
      ],
      "name": "nftContractExists",
      "outputs": [
        {
          "internalType": "bool",
          "name": "",
          "type": "bool"
        }
      ],
      "stateMutability": "view",
      "type": "function"
    },
    {
      "inputs": [],
      "name": "owner",
      "outputs": [
        {
          "internalType": "address",
          "name": "",
          "type": "address"
        }
      ],
      "stateMutability": "view",
      "type": "function"
    }
  ],
  "transactionHash": "0xb648a1dfad0ef882db4538b0aeeb46a4f3e3ba4a295034c2825179d40fd118dd",
  "args": [],
  "numDeployments": 1,
  "solcInputHash": "7df8e9ea566934e67d5b427779df8dfb",
  "bytecode": "0x608060405234801561001057600080fd5b50336000806101000a81548173ffffffffffffffffffffffffffffffffffffffff021916908373ffffffffffffffffffffffffffffffffffffffff160217905550613e69806100606000396000f3fe608060405234801561001057600080fd5b50600436106100575760003560e01c8063762a66a21461005c5780638da5cb5b1461008c578063a51d2c48146100aa578063a75016ce146100da578063b1cb48ef1461010a575b600080fd5b6100766004803603810190610071919061074c565b610126565b60405161008391906107eb565b60405180910390f35b6100946101a1565b6040516100a19190610815565b60405180910390f35b6100c460048036038101906100bf919061074c565b6101c5565b6040516100d191906107eb565b60405180910390f35b6100f460048036038101906100ef9190610830565b610207565b6040516101019190610878565b60405180910390f35b610124600480360381019061011f9190610893565b610227565b005b6000600160008473ffffffffffffffffffffffffffffffffffffffff1673ffffffffffffffffffffffffffffffffffffffff168152602001908152602001600020600083815260200190815260200160002060009054906101000a900473ffffffffffffffffffffffffffffffffffffffff16905092915050565b60008054906101000a900473ffffffffffffffffffffffffffffffffffffffff1681565b60016020528160005260406000206020528060005260406000206000915091509054906101000a900473ffffffffffffffffffffffffffffffffffffffff1681565b60026020528060005260406000206000915054906101000a900460ff1681565b3373ffffffffffffffffffffffffffffffffffffffff168273ffffffffffffffffffffffffffffffffffffffff16636352211e836040518263ffffffff1660e01b81526004016102779190610909565b602060405180830381865afa158015610294573d6000803e3d6000fd5b505050506040513d601f19601f820116820180604052508101906102b89190610939565b73ffffffffffffffffffffffffffffffffffffffff161461030e576040517f08c379a0000000000000000000000000000000000000000000000000000000008152600401610305906109c3565b60405180910390fd5b60058411610351576040517f08c379a000000000000000000000000000000000000000000000000000000000815260040161034890610a2f565b60405180910390fd5b600060405161035f906106a6565b604051809103906000f08015801561037b573d6000803e3d6000fd5b5090508073ffffffffffffffffffffffffffffffffffffffff1663c4d66de8336040518263ffffffff1660e01b81526004016103b79190610815565b600060405180830381600087803b1580156103d157600080fd5b505af11580156103e5573d6000803e3d6000fd5b505050508273ffffffffffffffffffffffffffffffffffffffff166323b872dd3383856040518463ffffffff1660e01b815260040161042693929190610a4f565b600060405180830381600087803b15801561044057600080fd5b505af1158015610454573d6000803e3d6000fd5b505050508073ffffffffffffffffffffffffffffffffffffffff1663edadd10c86863387876040518663ffffffff1660e01b8152600401610499959493929190610a86565b600060405180830381600087803b1580156104b357600080fd5b505af11580156104c7573d6000803e3d6000fd5b505050506000600260008573ffffffffffffffffffffffffffffffffffffffff1673ffffffffffffffffffffffffffffffffffffffff16815260200190815260200160002060009054906101000a900460ff16905080156105b65781600160008673ffffffffffffffffffffffffffffffffffffffff1673ffffffffffffffffffffffffffffffffffffffff168152602001908152602001600020600085815260200190815260200160002060006101000a81548173ffffffffffffffffffffffffffffffffffffffff021916908373ffffffffffffffffffffffffffffffffffffffff16021790555061069e565b81600160008673ffffffffffffffffffffffffffffffffffffffff1673ffffffffffffffffffffffffffffffffffffffff168152602001908152602001600020600085815260200190815260200160002060006101000a81548173ffffffffffffffffffffffffffffffffffffffff021916908373ffffffffffffffffffffffffffffffffffffffff1602179055506001600260008673ffffffffffffffffffffffffffffffffffffffff1673ffffffffffffffffffffffffffffffffffffffff16815260200190815260200160002060006101000a81548160ff0219169083151502179055505b505050505050565b61335a80610ada83390190565b600080fd5b600073ffffffffffffffffffffffffffffffffffffffff82169050919050565b60006106e3826106b8565b9050919050565b6106f3816106d8565b81146106fe57600080fd5b50565b600081359050610710816106ea565b92915050565b6000819050919050565b61072981610716565b811461073457600080fd5b50565b60008135905061074681610720565b92915050565b60008060408385031215610763576107626106b3565b5b600061077185828601610701565b925050602061078285828601610737565b9150509250929050565b6000819050919050565b60006107b16107ac6107a7846106b8565b61078c565b6106b8565b9050919050565b60006107c382610796565b9050919050565b60006107d5826107b8565b9050919050565b6107e5816107ca565b82525050565b600060208201905061080060008301846107dc565b92915050565b61080f816106d8565b82525050565b600060208201905061082a6000830184610806565b92915050565b600060208284031215610846576108456106b3565b5b600061085484828501610701565b91505092915050565b60008115159050919050565b6108728161085d565b82525050565b600060208201905061088d6000830184610869565b92915050565b600080600080608085870312156108ad576108ac6106b3565b5b60006108bb87828801610737565b94505060206108cc87828801610737565b93505060406108dd87828801610701565b92505060606108ee87828801610737565b91505092959194509250565b61090381610716565b82525050565b600060208201905061091e60008301846108fa565b92915050565b600081519050610933816106ea565b92915050565b60006020828403121561094f5761094e6106b3565b5b600061095d84828501610924565b91505092915050565b600082825260208201905092915050565b7f4e6f74206f776e6572206f66204e465400000000000000000000000000000000600082015250565b60006109ad601083610966565b91506109b882610977565b602082019050919050565b600060208201905081810360008301526109dc816109a0565b9050919050565b7f4475726174696f6e20746f6f2073686f72740000000000000000000000000000600082015250565b6000610a19601283610966565b9150610a24826109e3565b602082019050919050565b60006020820190508181036000830152610a4881610a0c565b9050919050565b6000606082019050610a646000830186610806565b610a716020830185610806565b610a7e60408301846108fa565b949350505050565b600060a082019050610a9b60008301886108fa565b610aa860208301876108fa565b610ab56040830186610806565b610ac26060830185610806565b610acf60808301846108fa565b969550505050505056fe608060405234801561001057600080fd5b5061333a806100206000396000f3fe6080604052600436106101355760003560e01c806391d14854116100ab578063d547741f1161006f578063d547741f14610446578063e7078f921461046f578063edadd10c146104ac578063ee957996146104d5578063eeb6c59614610512578063f851a4401461054f57610135565b806391d148541461034f5780639dcb511a1461038c578063a217fddf146103c9578063b9a2de3a146103f4578063c4d66de81461041d57610135565b806336568abe116100fd57806336568abe1461024557806354fd4d501461026e57806376e11286146102995780637e34c573146102c257806382e92784146103085780638da5cb5b1461032457610135565b806301ffc9a71461013a57806310782f8f14610177578063150b7a02146101a2578063248a9ca3146101df5780632f2ff15d1461021c575b600080fd5b34801561014657600080fd5b50610161600480360381019061015c9190612214565b61057a565b60405161016e919061225c565b60405180910390f35b34801561018357600080fd5b5061018c6105f4565b6040516101999190612290565b60405180910390f35b3480156101ae57600080fd5b506101c960048036038101906101c4919061239a565b6105fa565b6040516101d69190612431565b60405180910390f35b3480156101eb57600080fd5b5061020660048036038101906102019190612482565b61060f565b60405161021391906124be565b60405180910390f35b34801561022857600080fd5b50610243600480360381019061023e91906124d9565b61062e565b005b34801561025157600080fd5b5061026c600480360381019061026791906124d9565b610650565b005b34801561027a57600080fd5b506102836106cb565b60405161029091906125a9565b60405180910390f35b3480156102a557600080fd5b506102c060048036038101906102bb91906125cb565b610708565b005b3480156102ce57600080fd5b506102e960048036038101906102e4919061260b565b610884565b6040516102ff9a99989796959493929190612647565b60405180910390f35b610322600480360381019061031d91906126e3565b610965565b005b34801561033057600080fd5b50610339610f6e565b6040516103469190612736565b60405180910390f35b34801561035b57600080fd5b50610376600480360381019061037191906124d9565b610f94565b604051610383919061225c565b60405180910390f35b34801561039857600080fd5b506103b360048036038101906103ae9190612751565b610ffe565b6040516103c091906127dd565b60405180910390f35b3480156103d557600080fd5b506103de611031565b6040516103eb91906124be565b60405180910390f35b34801561040057600080fd5b5061041b6004803603810190610416919061260b565b611038565b005b34801561042957600080fd5b50610444600480360381019061043f9190612751565b6113bc565b005b34801561045257600080fd5b5061046d600480360381019061046891906124d9565b6115c4565b005b34801561047b57600080fd5b5061049660048036038101906104919190612751565b6115e6565b6040516104a39190612811565b60405180910390f35b3480156104b857600080fd5b506104d360048036038101906104ce919061282c565b6116cc565b005b3480156104e157600080fd5b506104fc60048036038101906104f791906128a7565b611b59565b6040516105099190612290565b60405180910390f35b34801561051e57600080fd5b5061053960048036038101906105349190612751565b611c60565b604051610546919061225c565b60405180910390f35b34801561055b57600080fd5b50610564611c80565b6040516105719190612736565b60405180910390f35b60007f7965db0b000000000000000000000000000000000000000000000000000000007bffffffffffffffffffffffffffffffffffffffffffffffffffffffff1916827bffffffffffffffffffffffffffffffffffffffffffffffffffffffff191614806105ed57506105ec82611ca6565b5b9050919050565b60015481565b600063150b7a0260e01b905095945050505050565b6000806000838152602001908152602001600020600101549050919050565b6106378261060f565b61064081611d10565b61064a8383611d24565b50505050565b610658611e15565b73ffffffffffffffffffffffffffffffffffffffff168173ffffffffffffffffffffffffffffffffffffffff16146106bc576040517f6697b23200000000000000000000000000000000000000000000000000000000815260040160405180910390fd5b6106c68282611e1d565b505050565b60606040518060400160405280600c81526020017f4e667441756374696f6e56310000000000000000000000000000000000000000815250905090565b33600360009054906101000a900473ffffffffffffffffffffffffffffffffffffffff1673ffffffffffffffffffffffffffffffffffffffff168173ffffffffffffffffffffffffffffffffffffffff1614610799576040517f08c379a000000000000000000000000000000000000000000000000000000000815260040161079090612959565b60405180910390fd5b60008290506107a88484611f0f565b80600560008673ffffffffffffffffffffffffffffffffffffffff1673ffffffffffffffffffffffffffffffffffffffff16815260200190815260200160002060006101000a81548173ffffffffffffffffffffffffffffffffffffffff021916908373ffffffffffffffffffffffffffffffffffffffff1602179055506001600660008673ffffffffffffffffffffffffffffffffffffffff1673ffffffffffffffffffffffffffffffffffffffff16815260200190815260200160002060006101000a81548160ff02191690831515021790555050505050565b60026020528060005260406000206000915090508060000160009054906101000a900473ffffffffffffffffffffffffffffffffffffffff16908060010154908060020154908060030154908060040154908060050160009054906101000a900473ffffffffffffffffffffffffffffffffffffffff16908060060160009054906101000a900473ffffffffffffffffffffffffffffffffffffffff16908060070154908060080160009054906101000a900473ffffffffffffffffffffffffffffffffffffffff16908060080160149054906101000a900460ff1690508a565b6109f16040518060400160405280600881526020017f62696464696e673100000000000000000000000000000000000000000000000081525083600660008673ffffffffffffffffffffffffffffffffffffffff1673ffffffffffffffffffffffffffffffffffffffff16815260200190815260200160002060009054906101000a900460ff16611fab565b600660008373ffffffffffffffffffffffffffffffffffffffff1673ffffffffffffffffffffffffffffffffffffffff16815260200190815260200160002060009054906101000a900460ff16610a7d576040517f08c379a0000000000000000000000000000000000000000000000000000000008152600401610a74906129eb565b60405180910390fd5b60006002600085815260200190815260200160002090508060080160149054906101000a900460ff16158015610ac5575080600101548160020154610ac29190612a3a565b42105b610b04576040517f08c379a0000000000000000000000000000000000000000000000000000000008152600401610afb90612aba565b60405180910390fd5b600080600073ffffffffffffffffffffffffffffffffffffffff168573ffffffffffffffffffffffffffffffffffffffff1603610b5057349150610b49600083611b59565b9050610b60565b839150610b5d8583611b59565b90505b610ba06040518060400160405280600881526020017f62696464696e6732000000000000000000000000000000000000000000000000815250868361204a565b6000610bb160008560030154611b59565b90506000610be78560080160009054906101000a900473ffffffffffffffffffffffffffffffffffffffff168660040154611b59565b90508183118015610bf757508083115b610c36576040517f08c379a0000000000000000000000000000000000000000000000000000000008152600401610c2d90612b26565b60405180910390fd5b600073ffffffffffffffffffffffffffffffffffffffff168773ffffffffffffffffffffffffffffffffffffffff1614610cec578673ffffffffffffffffffffffffffffffffffffffff166323b872dd3330896040518463ffffffff1660e01b8152600401610ca793929190612b46565b6020604051808303816000875af1158015610cc6573d6000803e3d6000fd5b505050506040513d601f19601f82011682018060405250810190610cea9190612ba9565b505b610d2c6040518060400160405280600881526020017f62696464696e6733000000000000000000000000000000000000000000000000815250888861204a565b846003015485600401541115610ed557600073ffffffffffffffffffffffffffffffffffffffff168560080160009054906101000a900473ffffffffffffffffffffffffffffffffffffffff1673ffffffffffffffffffffffffffffffffffffffff1603610e08578460050160009054906101000a900473ffffffffffffffffffffffffffffffffffffffff1673ffffffffffffffffffffffffffffffffffffffff166108fc86600401549081150290604051600060405180830381858888f19350505050158015610e02573d6000803e3d6000fd5b50610ed4565b8460080160009054906101000a900473ffffffffffffffffffffffffffffffffffffffff1673ffffffffffffffffffffffffffffffffffffffff1663a9059cbb8660050160009054906101000a900473ffffffffffffffffffffffffffffffffffffffff1687600401546040518363ffffffff1660e01b8152600401610e8f929190612bd6565b6020604051808303816000875af1158015610eae573d6000803e3d6000fd5b505050506040513d601f19601f82011682018060405250810190610ed29190612ba9565b505b5b838560040181905550338560050160006101000a81548173ffffffffffffffffffffffffffffffffffffffff021916908373ffffffffffffffffffffffffffffffffffffffff160217905550868560080160006101000a81548173ffffffffffffffffffffffffffffffffffffffff021916908373ffffffffffffffffffffffffffffffffffffffff1602179055505050505050505050565b600460009054906101000a900473ffffffffffffffffffffffffffffffffffffffff1681565b600080600084815260200190815260200160002060000160008373ffffffffffffffffffffffffffffffffffffffff1673ffffffffffffffffffffffffffffffffffffffff16815260200190815260200160002060009054906101000a900460ff16905092915050565b60056020528060005260406000206000915054906101000a900473ffffffffffffffffffffffffffffffffffffffff1681565b6000801b81565b33600360009054906101000a900473ffffffffffffffffffffffffffffffffffffffff1673ffffffffffffffffffffffffffffffffffffffff168173ffffffffffffffffffffffffffffffffffffffff16146110c9576040517f08c379a00000000000000000000000000000000000000000000000000000000081526004016110c090612959565b60405180910390fd5b6000600260008481526020019081526020016000209050806001015481600201546110f49190612a3a565b421015611136576040517f08c379a000000000000000000000000000000000000000000000000000000000815260040161112d90612c71565b60405180910390fd5b8060060160009054906101000a900473ffffffffffffffffffffffffffffffffffffffff1673ffffffffffffffffffffffffffffffffffffffff166342842e0e308360050160009054906101000a900473ffffffffffffffffffffffffffffffffffffffff1684600701546040518463ffffffff1660e01b81526004016111bf93929190612b46565b600060405180830381600087803b1580156111d957600080fd5b505af11580156111ed573d6000803e3d6000fd5b5050505080600301548160040154111561139a57600073ffffffffffffffffffffffffffffffffffffffff168160080160009054906101000a900473ffffffffffffffffffffffffffffffffffffffff1673ffffffffffffffffffffffffffffffffffffffff16036112cd578060000160009054906101000a900473ffffffffffffffffffffffffffffffffffffffff1673ffffffffffffffffffffffffffffffffffffffff166108fc82600401549081150290604051600060405180830381858888f193505050501580156112c7573d6000803e3d6000fd5b50611399565b8060080160009054906101000a900473ffffffffffffffffffffffffffffffffffffffff1673ffffffffffffffffffffffffffffffffffffffff1663a9059cbb8260000160009054906101000a900473ffffffffffffffffffffffffffffffffffffffff1683600401546040518363ffffffff1660e01b8152600401611354929190612bd6565b6020604051808303816000875af1158015611373573d6000803e3d6000fd5b505050506040513d601f19601f820116820180604052508101906113979190612ba9565b505b5b60018160080160146101000a81548160ff021916908315150217905550505050565b60006113c66120e9565b905060008160000160089054906101000a900460ff1615905060008260000160009054906101000a900467ffffffffffffffff1690506000808267ffffffffffffffff161480156114145750825b9050600060018367ffffffffffffffff16148015611449575060003073ffffffffffffffffffffffffffffffffffffffff163b145b905081158015611457575080155b1561148e576040517ff92ee8a900000000000000000000000000000000000000000000000000000000815260040160405180910390fd5b60018560000160006101000a81548167ffffffffffffffff021916908367ffffffffffffffff16021790555083156114de5760018560000160086101000a81548160ff0219169083151502179055505b33600460006101000a81548173ffffffffffffffffffffffffffffffffffffffff021916908373ffffffffffffffffffffffffffffffffffffffff16021790555085600360006101000a81548173ffffffffffffffffffffffffffffffffffffffff021916908373ffffffffffffffffffffffffffffffffffffffff16021790555083156115bc5760008560000160086101000a81548160ff0219169083151502179055507fc7f505b2f371ae2175ee4913f4499e1f2633a7b5936321eed1cdaeb6115181d260016040516115b39190612ce0565b60405180910390a15b505050505050565b6115cd8261060f565b6115d681611d10565b6115e08383611e1d565b50505050565b600080600560008473ffffffffffffffffffffffffffffffffffffffff1673ffffffffffffffffffffffffffffffffffffffff16815260200190815260200160002060009054906101000a900473ffffffffffffffffffffffffffffffffffffffff16905060008173ffffffffffffffffffffffffffffffffffffffff1663feaf968c6040518163ffffffff1660e01b815260040160a060405180830381865afa158015611698573d6000803e3d6000fd5b505050506040513d601f19601f820116820180604052508101906116bc9190612d7e565b5050509150508092505050919050565b82600360009054906101000a900473ffffffffffffffffffffffffffffffffffffffff1673ffffffffffffffffffffffffffffffffffffffff168173ffffffffffffffffffffffffffffffffffffffff161461175d576040517f08c379a000000000000000000000000000000000000000000000000000000000815260040161175490612959565b60405180910390fd5b84600081116117a1576040517f08c379a000000000000000000000000000000000000000000000000000000000815260040161179890612e45565b60405180910390fd5b86600581116117e5576040517f08c379a00000000000000000000000000000000000000000000000000000000081526004016117dc90612ed7565b60405180910390fd5b60008573ffffffffffffffffffffffffffffffffffffffff16636352211e866040518263ffffffff1660e01b81526004016118209190612290565b602060405180830381865afa15801561183d573d6000803e3d6000fd5b505050506040513d601f19601f820116820180604052508101906118619190612f0c565b90503073ffffffffffffffffffffffffffffffffffffffff168173ffffffffffffffffffffffffffffffffffffffff1614611906578573ffffffffffffffffffffffffffffffffffffffff166342842e0e8830886040518463ffffffff1660e01b81526004016118d393929190612b46565b600060405180830381600087803b1580156118ed57600080fd5b505af1158015611901573d6000803e3d6000fd5b505050505b60006040518061014001604052808973ffffffffffffffffffffffffffffffffffffffff1681526020014281526020018b81526020018a81526020018a81526020018973ffffffffffffffffffffffffffffffffffffffff1681526020018873ffffffffffffffffffffffffffffffffffffffff168152602001878152602001600073ffffffffffffffffffffffffffffffffffffffff1681526020016000151581525090508060026000600154815260200190815260200160002060008201518160000160006101000a81548173ffffffffffffffffffffffffffffffffffffffff021916908373ffffffffffffffffffffffffffffffffffffffff1602179055506020820151816001015560408201518160020155606082015181600301556080820151816004015560a08201518160050160006101000a81548173ffffffffffffffffffffffffffffffffffffffff021916908373ffffffffffffffffffffffffffffffffffffffff16021790555060c08201518160060160006101000a81548173ffffffffffffffffffffffffffffffffffffffff021916908373ffffffffffffffffffffffffffffffffffffffff16021790555060e082015181600701556101008201518160080160006101000a81548173ffffffffffffffffffffffffffffffffffffffff021916908373ffffffffffffffffffffffffffffffffffffffff1602179055506101208201518160080160146101000a81548160ff02191690831515021790555090505060016000815480929190611b4890612f39565b919050555050505050505050505050565b600080611b65846115e6565b90506000670de0b6b3a76400009050600073ffffffffffffffffffffffffffffffffffffffff168573ffffffffffffffffffffffffffffffffffffffff1614611c26578473ffffffffffffffffffffffffffffffffffffffff1663313ce5676040518163ffffffff1660e01b8152600401602060405180830381865afa158015611bf3573d6000803e3d6000fd5b505050506040513d601f19601f82011682018060405250810190611c179190612fba565b600a611c23919061311a565b90505b6000818386611c359190613165565b611c3f91906131d6565b9050670de0b6b3a764000081611c559190613165565b935050505092915050565b60066020528060005260406000206000915054906101000a900460ff1681565b600360009054906101000a900473ffffffffffffffffffffffffffffffffffffffff1681565b60007f01ffc9a7000000000000000000000000000000000000000000000000000000007bffffffffffffffffffffffffffffffffffffffffffffffffffffffff1916827bffffffffffffffffffffffffffffffffffffffffffffffffffffffff1916149050919050565b611d2181611d1c611e15565b612111565b50565b6000611d308383610f94565b611e0a57600160008085815260200190815260200160002060000160008473ffffffffffffffffffffffffffffffffffffffff1673ffffffffffffffffffffffffffffffffffffffff16815260200190815260200160002060006101000a81548160ff021916908315150217905550611da7611e15565b73ffffffffffffffffffffffffffffffffffffffff168273ffffffffffffffffffffffffffffffffffffffff16847f2f8788117e7eff1d82e926ec794901d17c78024a50270940304540a733656f0d60405160405180910390a460019050611e0f565b600090505b92915050565b600033905090565b6000611e298383610f94565b15611f0457600080600085815260200190815260200160002060000160008473ffffffffffffffffffffffffffffffffffffffff1673ffffffffffffffffffffffffffffffffffffffff16815260200190815260200160002060006101000a81548160ff021916908315150217905550611ea1611e15565b73ffffffffffffffffffffffffffffffffffffffff168273ffffffffffffffffffffffffffffffffffffffff16847ff6391f5c32d9c69d2a47ea670b442974b53935d1edc7fd64eb21e047a839171b60405160405180910390a460019050611f09565b600090505b92915050565b611fa78282604051602401611f25929190613207565b6040516020818303038152906040527fdaf0d4aa000000000000000000000000000000000000000000000000000000007bffffffffffffffffffffffffffffffffffffffffffffffffffffffff19166020820180517bffffffffffffffffffffffffffffffffffffffffffffffffffffffff8381831617835250505050612162565b5050565b612045838383604051602401611fc393929190613230565b6040516020818303038152906040527fc91d5ed4000000000000000000000000000000000000000000000000000000007bffffffffffffffffffffffffffffffffffffffffffffffffffffffff19166020820180517bffffffffffffffffffffffffffffffffffffffffffffffffffffffff8381831617835250505050612162565b505050565b6120e48383836040516024016120629392919061326e565b6040516020818303038152906040527f0d26b925000000000000000000000000000000000000000000000000000000007bffffffffffffffffffffffffffffffffffffffffffffffffffffffff19166020820180517bffffffffffffffffffffffffffffffffffffffffffffffffffffffff8381831617835250505050612162565b505050565b60007ff0c57e16840df040f15088dc2f81fe391c3923bec73e23a9662efc9c229c6a00905090565b61211b8282610f94565b61215e5780826040517fe2517d3f0000000000000000000000000000000000000000000000000000000081526004016121559291906132ac565b60405180910390fd5b5050565b6121798161217161217c61219d565b63ffffffff16565b50565b60006a636f6e736f6c652e6c6f679050600080835160208501845afa505050565b6121a8819050919050565b6121b06132d5565b565b600080fd5b600080fd5b60007fffffffff0000000000000000000000000000000000000000000000000000000082169050919050565b6121f1816121bc565b81146121fc57600080fd5b50565b60008135905061220e816121e8565b92915050565b60006020828403121561222a576122296121b2565b5b6000612238848285016121ff565b91505092915050565b60008115159050919050565b61225681612241565b82525050565b6000602082019050612271600083018461224d565b92915050565b6000819050919050565b61228a81612277565b82525050565b60006020820190506122a56000830184612281565b92915050565b600073ffffffffffffffffffffffffffffffffffffffff82169050919050565b60006122d6826122ab565b9050919050565b6122e6816122cb565b81146122f157600080fd5b50565b600081359050612303816122dd565b92915050565b61231281612277565b811461231d57600080fd5b50565b60008135905061232f81612309565b92915050565b600080fd5b600080fd5b600080fd5b60008083601f84011261235a57612359612335565b5b8235905067ffffffffffffffff8111156123775761237661233a565b5b6020830191508360018202830111156123935761239261233f565b5b9250929050565b6000806000806000608086880312156123b6576123b56121b2565b5b60006123c4888289016122f4565b95505060206123d5888289016122f4565b94505060406123e688828901612320565b935050606086013567ffffffffffffffff811115612407576124066121b7565b5b61241388828901612344565b92509250509295509295909350565b61242b816121bc565b82525050565b60006020820190506124466000830184612422565b92915050565b6000819050919050565b61245f8161244c565b811461246a57600080fd5b50565b60008135905061247c81612456565b92915050565b600060208284031215612498576124976121b2565b5b60006124a68482850161246d565b91505092915050565b6124b88161244c565b82525050565b60006020820190506124d360008301846124af565b92915050565b600080604083850312156124f0576124ef6121b2565b5b60006124fe8582860161246d565b925050602061250f858286016122f4565b9150509250929050565b600081519050919050565b600082825260208201905092915050565b60005b83811015612553578082015181840152602081019050612538565b60008484015250505050565b6000601f19601f8301169050919050565b600061257b82612519565b6125858185612524565b9350612595818560208601612535565b61259e8161255f565b840191505092915050565b600060208201905081810360008301526125c38184612570565b905092915050565b600080604083850312156125e2576125e16121b2565b5b60006125f0858286016122f4565b9250506020612601858286016122f4565b9150509250929050565b600060208284031215612621576126206121b2565b5b600061262f84828501612320565b91505092915050565b612641816122cb565b82525050565b60006101408201905061265d600083018d612638565b61266a602083018c612281565b612677604083018b612281565b612684606083018a612281565b6126916080830189612281565b61269e60a0830188612638565b6126ab60c0830187612638565b6126b860e0830186612281565b6126c6610100830185612638565b6126d461012083018461224d565b9b9a5050505050505050505050565b6000806000606084860312156126fc576126fb6121b2565b5b600061270a86828701612320565b935050602061271b868287016122f4565b925050604061272c86828701612320565b9150509250925092565b600060208201905061274b6000830184612638565b92915050565b600060208284031215612767576127666121b2565b5b6000612775848285016122f4565b91505092915050565b6000819050919050565b60006127a361279e612799846122ab565b61277e565b6122ab565b9050919050565b60006127b582612788565b9050919050565b60006127c7826127aa565b9050919050565b6127d7816127bc565b82525050565b60006020820190506127f260008301846127ce565b92915050565b6000819050919050565b61280b816127f8565b82525050565b60006020820190506128266000830184612802565b92915050565b600080600080600060a08688031215612848576128476121b2565b5b600061285688828901612320565b955050602061286788828901612320565b9450506040612878888289016122f4565b9350506060612889888289016122f4565b925050608061289a88828901612320565b9150509295509295909350565b600080604083850312156128be576128bd6121b2565b5b60006128cc858286016122f4565b92505060206128dd85828601612320565b9150509250929050565b7f4f6e6c792061646d696e20616c6c6f77656420746f2063726561746520616e2060008201527f61756374696f6e00000000000000000000000000000000000000000000000000602082015250565b6000612943602783612524565b915061294e826128e7565b604082019050919050565b6000602082019050818103600083015261297281612936565b9050919050565b7f596f757220455243323020746f6b656e206973206e6f7420737570706f72746560008201527f6420746f20626964000000000000000000000000000000000000000000000000602082015250565b60006129d5602883612524565b91506129e082612979565b604082019050919050565b60006020820190508181036000830152612a04816129c8565b9050919050565b7f4e487b7100000000000000000000000000000000000000000000000000000000600052601160045260246000fd5b6000612a4582612277565b9150612a5083612277565b9250828201905080821115612a6857612a67612a0b565b5b92915050565b7f41756374696f6e20656e64730000000000000000000000000000000000000000600082015250565b6000612aa4600c83612524565b9150612aaf82612a6e565b602082019050919050565b60006020820190508181036000830152612ad381612a97565b9050919050565b7f596f75722062696464696e6720697320746f6f206c6f77000000000000000000600082015250565b6000612b10601783612524565b9150612b1b82612ada565b602082019050919050565b60006020820190508181036000830152612b3f81612b03565b9050919050565b6000606082019050612b5b6000830186612638565b612b686020830185612638565b612b756040830184612281565b949350505050565b612b8681612241565b8114612b9157600080fd5b50565b600081519050612ba381612b7d565b92915050565b600060208284031215612bbf57612bbe6121b2565b5b6000612bcd84828501612b94565b91505092915050565b6000604082019050612beb6000830185612638565b612bf86020830184612281565b9392505050565b7f54696d65206973206e6f74207570207965742c2041756374696f6e20656e647360008201527f206661696c656400000000000000000000000000000000000000000000000000602082015250565b6000612c5b602783612524565b9150612c6682612bff565b604082019050919050565b60006020820190508181036000830152612c8a81612c4e565b9050919050565b6000819050919050565b600067ffffffffffffffff82169050919050565b6000612cca612cc5612cc084612c91565b61277e565b612c9b565b9050919050565b612cda81612caf565b82525050565b6000602082019050612cf56000830184612cd1565b92915050565b600069ffffffffffffffffffff82169050919050565b612d1a81612cfb565b8114612d2557600080fd5b50565b600081519050612d3781612d11565b92915050565b612d46816127f8565b8114612d5157600080fd5b50565b600081519050612d6381612d3d565b92915050565b600081519050612d7881612309565b92915050565b600080600080600060a08688031215612d9a57612d996121b2565b5b6000612da888828901612d28565b9550506020612db988828901612d54565b9450506040612dca88828901612d69565b9350506060612ddb88828901612d69565b9250506080612dec88828901612d28565b9150509295509295909350565b7f5374617274696e6720626964206d7573742067726561746572207468616e2030600082015250565b6000612e2f602083612524565b9150612e3a82612df9565b602082019050919050565b60006020820190508181036000830152612e5e81612e22565b9050919050565b7f41756374696f6e206475726174696f6e206d757374206772656174657220746860008201527f616e2035207365636f6e64730000000000000000000000000000000000000000602082015250565b6000612ec1602c83612524565b9150612ecc82612e65565b604082019050919050565b60006020820190508181036000830152612ef081612eb4565b9050919050565b600081519050612f06816122dd565b92915050565b600060208284031215612f2257612f216121b2565b5b6000612f3084828501612ef7565b91505092915050565b6000612f4482612277565b91507fffffffffffffffffffffffffffffffffffffffffffffffffffffffffffffffff8203612f7657612f75612a0b565b5b600182019050919050565b600060ff82169050919050565b612f9781612f81565b8114612fa257600080fd5b50565b600081519050612fb481612f8e565b92915050565b600060208284031215612fd057612fcf6121b2565b5b6000612fde84828501612fa5565b91505092915050565b60008160011c9050919050565b6000808291508390505b600185111561303e5780860481111561301a57613019612a0b565b5b60018516156130295780820291505b808102905061303785612fe7565b9450612ffe565b94509492505050565b6000826130575760019050613113565b816130655760009050613113565b816001811461307b5760028114613085576130b4565b6001915050613113565b60ff84111561309757613096612a0b565b5b8360020a9150848211156130ae576130ad612a0b565b5b50613113565b5060208310610133831016604e8410600b84101617156130e95782820a9050838111156130e4576130e3612a0b565b5b613113565b6130f68484846001612ff4565b9250905081840481111561310d5761310c612a0b565b5b81810290505b9392505050565b600061312582612277565b915061313083612f81565b925061315d7fffffffffffffffffffffffffffffffffffffffffffffffffffffffffffffffff8484613047565b905092915050565b600061317082612277565b915061317b83612277565b925082820261318981612277565b915082820484148315176131a05761319f612a0b565b5b5092915050565b7f4e487b7100000000000000000000000000000000000000000000000000000000600052601260045260246000fd5b60006131e182612277565b91506131ec83612277565b9250826131fc576131fb6131a7565b5b828204905092915050565b600060408201905061321c6000830185612638565b6132296020830184612638565b9392505050565b6000606082019050818103600083015261324a8186612570565b90506132596020830185612638565b613266604083018461224d565b949350505050565b600060608201905081810360008301526132888186612570565b90506132976020830185612638565b6132a46040830184612281565b949350505050565b60006040820190506132c16000830185612638565b6132ce60208301846124af565b9392505050565b7f4e487b7100000000000000000000000000000000000000000000000000000000600052605160045260246000fdfea26469706673582212204625ae756f04aa469e362f438af6394f6079aad3178944e21004b4dd0bc3f92164736f6c63430008140033a2646970667358221220b5b76d47c6efdbe1b549c0d25d1fac2664d2ece979e4a5c1170390ee5af88b0464736f6c63430008140033",
  "devdoc": {
    "kind": "dev",
    "methods": {},
    "version": 1
  },
  "userdoc": {
    "kind": "user",
    "methods": {},
    "version": 1
  },
  "storageLayout": {
    "storage": [
      {
        "astId": 1806,
        "contract": "contracts/NftAuctionFactory.sol:NftAuctionFactory",
        "label": "owner",
        "offset": 0,
        "slot": "0",
        "type": "t_address"
      },
      {
        "astId": 1813,
        "contract": "contracts/NftAuctionFactory.sol:NftAuctionFactory",
        "label": "nftContractAuctionContractMap",
        "offset": 0,
        "slot": "1",
        "type": "t_mapping(t_address,t_mapping(t_uint256,t_contract(NftAuction)1796))"
      },
      {
        "astId": 1817,
        "contract": "contracts/NftAuctionFactory.sol:NftAuctionFactory",
        "label": "nftContractExists",
        "offset": 0,
        "slot": "2",
        "type": "t_mapping(t_address,t_bool)"
      }
    ],
    "types": {
      "t_address": {
        "encoding": "inplace",
        "label": "address",
        "numberOfBytes": "20"
      },
      "t_bool": {
        "encoding": "inplace",
        "label": "bool",
        "numberOfBytes": "1"
      },
      "t_contract(NftAuction)1796": {
        "encoding": "inplace",
        "label": "contract NftAuction",
        "numberOfBytes": "20"
      },
      "t_mapping(t_address,t_bool)": {
        "encoding": "mapping",
        "key": "t_address",
        "label": "mapping(address => bool)",
        "numberOfBytes": "32",
        "value": "t_bool"
      },
      "t_mapping(t_address,t_mapping(t_uint256,t_contract(NftAuction)1796))": {
        "encoding": "mapping",
        "key": "t_address",
        "label": "mapping(address => mapping(uint256 => contract NftAuction))",
        "numberOfBytes": "32",
        "value": "t_mapping(t_uint256,t_contract(NftAuction)1796)"
      },
      "t_mapping(t_uint256,t_contract(NftAuction)1796)": {
        "encoding": "mapping",
        "key": "t_uint256",
        "label": "mapping(uint256 => contract NftAuction)",
        "numberOfBytes": "32",
        "value": "t_contract(NftAuction)1796"
      },
      "t_uint256": {
        "encoding": "inplace",
        "label": "uint256",
        "numberOfBytes": "32"
      }
    }
  }
}